:100000000C943E000C945B000C945B000C945B0021
:100010000C945B000C945B000C945B000C945B00F4
:100020000C945B000C9404020C945B000C945B0039
:100030000C945B000C945B000C945B000C945B00D4
:100040000C945B000C945B000C94ED010C945B0031
:100050000C9459030C945B000C945B000C945B00B3
:100060000C945B000C945B000C945B000C945B00A4
:100070000C945B000C945B000C945B0011241FBE7D
:10008000CFEFD4E0DEBFCDBF11E0A0E0B1E0E4E10E
:10009000FAE002C005900D92A030B107D9F721E037
:1000A000A0E0B1E001C01D92A633B207E1F70E94C3
:1000B00045030C9408050C94000080EF81B980EC96
:1000C00084B98FEF85B987B98EEF8AB9089580E634
:1000D00080937C0086EC80937A0087E080937E009A
:1000E000089580E680937C0086EC80937A00EAE7AE
:1000F000F0E0808186FDFDCFEAE7F0E086E48083D2
:100100008091790090E090932F0180932E0181E6F9
:1001100080937C0086EC8083808186FDFDCFEAE7BA
:10012000F0E086E480838091790090E090932D0147
:1001300080932C0182E680937C0086EC8083808112
:1001400086FDFDCFEAE7F0E086E4808380917900C8
:1001500090E090932B0180932A0183E680937C00AA
:1001600086EC8083808186FDFDCF86E480937A00D3
:100170008091790090E0909329018093280108955F
:1001800083B181FFA5C0409A84FF42C082FFA2C014
:100190004298B9C0429A20911001309111012F5F0D
:1001A0003F4F203991E0390729F030931101209316
:1001B0001001A9C01092110110921001A4C0429820
:1001C00020911001309111012F5F3F4F30931101A9
:1001D0002093100198C0439A209110013091110191
:1001E0002F5F3F4F203991E0390709F085C0109209
:1001F00011011092100135C04398209110013091E7
:1002000011012F5F3F4F309311012093100129C03E
:100210002091100130911101283C3105B4F0429A2F
:10022000439A20911001309111012F5F3F4F2039E7
:1002300091E0390729F0309311012093100111C08A
:1002400010921101109210010CC043984298209115
:100250001001309111012F5F3F4F30931101209316
:10026000100185FF27C080913001909131018130CC
:10027000910569F480918A0090918B000A9708F0AB
:1002800045C04198109231011092300102C0892B73
:10029000E9F580912C0190912D01853B91050CF0A1
:1002A000419A80912C0190912D01843B910574F528
:1002B0004198089580918A0090918B000A9730F5BB
:1002C00081E090E09093310180933001419A08954C
:1002D00040985ACF2091100130911101283C3105EE
:1002E0000CF058CF6CCF2091100130911101283CB7
:1002F00031050CF070CF80CF3093110120931001A5
:10030000B0CF4398AECF83FDFCCFEDCF0895609181
:100310008A0070918B0080E090E00E940D042AE03A
:1003200037ED43EA5BE30E949B0420E030E040ECC1
:1003300050E40E946B03609308017093090180935D
:100340000A0190930B010E94DE036093B400609158
:10035000280170912901072E000C880B990B0E942F
:100360000F0428E431EE4AEF5FE30E949B040E94F1
:10037000D70370930F0160930E01089514BC87E0BA
:1003800085BD81E080936E0016BC83E2809380007F
:100390009AE19093810027EE33E030938900209317
:1003A00088002EE230E030938B0020938A00109278
:1003B0008500109284008093B0008FE08093B1009C
:1003C0008CE98093B30086E08093B40082E0809350
:1003D00070001092B200789408951F920F920FB699
:1003E0000F9211248F939F93809126019091270162
:1003F000019690932701809326019F918F910F90F2
:100400000FBE0F901F9018951F920F920FB60F926C
:1004100011242F933F934F935F936F937F938F9309
:100420009F93AF93BF93EF93FF9380910C019091B3
:100430000D01019690930D0180930C01C29709F074
:1004400042C086B560E070E070912601680F711DB2
:100450007093250160932401072E000C880B990BE3
:100460000E940F0429E23CE54FE85EE30E949B04F2
:1004700060932001709321018093220190932301C6
:1004800027E137EB41E559E30E949B049B01AC0156
:10049000609104017091050180910601909107011E
:1004A0000E946B0360930401709305018093060121
:1004B00090930701109227011092260116BC10920A
:1004C0000D0110920C01FF91EF91BF91AF919F919F
:1004D0008F917F916F915F914F913F912F910F90ED
:1004E0000FBE0F901F90189580918A0090918B00FD
:1004F0000A9710F4459801C0459A80912C0190917B
:100500002D01019620912E0130912F018217930722
:10051000DCF480918A0090918B00873E934039F4FF
:1005200087EE93E090938B0080938A000DC0EAE8F9
:10053000F0E0808191810196918380838FEC97E038
:100540000197F1F700C0000080912E0190912F01DA
:100550000A9620912C0130912D0182179307C4F443
:1005600080918A0090918B00892B29F410928B0046
:1005700010928A000895EAE8F0E080819181019765
:10058000918380838FEC97E00197F1F700C0000022
:10059000089583E38093C4001092C500E0ECF0E07E
:1005A00080818068808388E98093C10086E08093A1
:1005B000C200089521E73DE34AE85EE3609120012F
:1005C0007091210180912201909123010E949B044E
:1005D00060930001709301018093020190930301E5
:1005E0000E94D70370931B0160931A01609104016C
:1005F0007091050180910601909107010E94D70337
:10060000709319016093180160912A0170912B0178
:10061000072E000C880B990B0E940F0424EA30E788
:1006200041E151E40E949B042FE135E443E653E4A9
:100630000E946A0360931C0170931D0180931E0148
:1006400090931F010E94D7037093170160931601C6
:1006500080910E0190910F019093150180931401E8
:100660008091300190913101892B09F44698809155
:10067000300190913101019709F4469A88B190E0D8
:10068000909313018093120108950E9467000E94C5
:100690005D000E94BE010E94C90278940E94C000C1
:1006A0000E9471000E9474020E9487010E94DA0277
:1006B000F4CF1F920F920FB60F9211248F93809157
:1006C000C60080933301479A8F910F900FBE0F9011
:1006D0001F9018955058BB27AA270E9482030C949C
:1006E00061040E94530438F00E945A0420F039F447
:1006F0009F3F19F426F40C9450040EF4E095E7FBA8
:100700000C944A04E92F0E94720458F3BA17620746
:1007100073078407950720F079F4A6F50C949404E8
:100720000EF4E0950B2EBA2FA02D0B01B90190010C
:100730000C01CA01A0011124FF27591B99F0593F50
:1007400050F4503E68F11A16F040A22F232F342F98
:100750004427585FF3CF469537952795A795F040E6
:100760005395C9F77EF41F16BA0B620B730B840BFB
:10077000BAF09150A1F0FF0FBB1F661F771F881FB3
:10078000C2F70EC0BA0F621F731F841F48F487950B
:1007900077956795B795F7959E3F08F0B0CF9395FD
:1007A000880F08F09927EE0F9795879508950E9476
:1007B000DE036894B1110C94950408950E947A04A4
:1007C00088F09F5798F0B92F9927B751B0F0E1F012
:1007D000660F771F881F991F1AF0BA95C9F714C0C2
:1007E000B13091F00E949404B1E008950C94940407
:1007F000672F782F8827B85F39F0B93FCCF38695FB
:1008000077956795B395D9F73EF490958095709557
:1008100061957F4F8F4F9F4F0895E89409C097FBD4
:100820003EF490958095709561957F4F8F4F9F4FC7
:100830009923A9F0F92F96E9BB279395F69587950B
:1008400077956795B795F111F8CFFAF4BB0F11F4CE
:1008500060FF1BC06F5F7F4F8F4F9F4F16C0882375
:1008600011F096E911C0772321F09EE8872F762FAB
:1008700005C0662371F096E8862F70E060E02AF0EC
:100880009A95660F771F881FDAF7880F96958795D8
:1008900097F9089597F99F6780E870E060E0089500
:1008A0009FEF80EC089500240A9416161706180688
:1008B0000906089500240A94121613061406050664
:1008C0000895092E0394000C11F4882352F0BB0FF5
:1008D00040F4BF2B11F460FF04C06F5F7F4F8F4F58
:1008E0009F4F089557FD9058440F551F59F05F3F93
:1008F00071F04795880F97FB991F61F09F3F79F042
:1009000087950895121613061406551FF2CF4695C3
:10091000F1DF08C0161617061806991FF1CF869545
:100920007105610508940895E894BB276627772729
:10093000CB0197F908950E94AE040C9461040E94C3
:10094000530438F00E945A0420F0952311F00C94BF
:100950004A040C94500411240C9495040E947204CF
:1009600070F3959FC1F3950F50E0551F629FF00102
:10097000729FBB27F00DB11D639FAA27F00DB11D1B
:10098000AA1F649F6627B00DA11D661F829F2227A4
:10099000B00DA11D621F739FB00DA11D621F839F2B
:1009A000A00D611D221F749F3327A00D611D231F01
:1009B000849F600D211D822F762F6A2F11249F574F
:1009C00050409AF0F1F088234AF0EE0FFF1FBB1F52
:1009D000661F771F881F91505040A9F79E3F510511
:1009E00080F00C944A040C9495045F3FE4F3983E25
:1009F000D4F3869577956795B795F795E7959F5FBB
:100A0000C1F7FE2B880F911D9695879597F908954C
:040A1000F894FFCF88
:00000001FF
